:020000040000FA
:020000000528D1
:040002000034003492
:08000800FA280030A300A0005B
:10001000A100A200A600A700A800A9008312031750
:100020009E01850186018701161783160313FF3091
:1000300086130512813099002430980010309B00FF
:100040008312903098008B170B178B1583160313B0
:100050008C161A0883128316031350309F008316E0
:1000600003130514831203171E1483120313813024
:100070009F009F149F183A28831203131E088312AF
:100080000313A400831603131E0883120313A50091
:10009000831203130030A8001130A7000130A9001B
:1000A00028082502031C5928270825020318592867
:1000B000F42811302807A7070230A90028082502D4
:1000C000031C67282708250203186728F428113025
:1000D0002807A7070330A90028082502031C752854
:1000E0002708250203187528F42811302807A707C8
:1000F0000430A90028082502031C832827082502AC
:1001000003188328F42811302807A7070530A90011
:1001100028082502031C9128270825020318912886
:10012000F42811302807A7070630A900280825025F
:10013000031C9F282708250203189F28F428113044
:100140002807A7070730A90028082502031CAD28A7
:10015000270825020318AD28F42811302807A7071F
:100160000830A90028082502031CBB2827082502FF
:100170000318BB28F42811302807A7070930A90065
:1001800028082502031CC928270825020318C928A6
:10019000F42811302807A7070A30A90028082502EB
:1001A000031CD728270825020318D728F428113064
:1001B0002807A7070B30A90028082502031CE528FB
:1001C000270825020318E528F42811302807A70777
:1001D0000C30A90028082502031C3928270825020D
:1001E00003183928F42839282908A60039282608B0
:1001F00099003928A00003088301A2000A08A10081
:100200008A010B1C09290B10061F1D2926089900BD
:100210001D298C1E1D291A08A300C039403A031D50
:100220001D29A31E0710A31A0714231E8710231AC3
:100230008714A31D0711A3190715830121088A003C
:0A02400022088300A00E200E090022
:02400E00C23FAF
:00000001FF
