:020000040000FA
:020000000528D1
:08000800F4280030A300A00061
:10001000A100A200A600A700A800A9008312031750
:100020009E01850186018701161783160313FF3091
:1000300086130512813099002430980000309B000F
:100040008312903098008B170B178B1583160313B0
:100050008C161A0883128316031360309F008316D0
:1000600003130514831203171E14831203130130A4
:100070009F009F149F183A28831203131E088312AF
:100080000313A500831203130030A8001130A7004A
:100090000130A90028082502031C5328270825023F
:1000A00003185328EE2811302807A7070230A900AB
:1000B00028082502031C6128270825020318612847
:1000C000EE2811302807A7070330A90028082502C9
:1000D000031C6F282708250203186F28EE2811300B
:1000E0002807A7070430A90028082502031C7D283B
:1000F0002708250203187D28EE2811302807A707B6
:100100000530A90028082502031C8B282708250292
:1001100003188B28EE2811302807A7070630A900FE
:1001200028082502031C9928270825020318992866
:10013000EE2811302807A7070730A9002808250254
:10014000031CA728270825020318A728EE2811302A
:100150002807A7070830A90028082502031CB5288E
:10016000270825020318B528EE2811302807A7070D
:100170000930A90028082502031CC32827082502E6
:100180000318C328EE2811302807A7070A30A90052
:1001900028082502031CD128270825020318D12886
:1001A000EE2811302807A7070B30A90028082502E0
:1001B000031CDF28270825020318DF28EE2811304A
:1001C0002807A7070C30A90028082502031C392896
:1001D0002708250203183928EE2839282908A600FF
:1001E0003928260899003928A00003088301A200B5
:1001F0000A08A1008A010B1C03290B10061F1729EE
:100200002608990017298C1E17291A08A300C0393F
:10021000403A031D1729A31E0710A31A0714231E13
:100220008710231A8714A31D0711A319071583012B
:0E02300021088A0022088300A00E200E09007B
:02400E00D23F9F
:00000001FF
